:100000000EC015C014C013C012C011C010C00FC064
:100010000EC00DC00CC00BC00AC009C008C011241E
:100020001FBECFE5D2E0DEBFCDBF13D027C0E8CFE3
:10003000BA98C29AB99AC1980895C19A2FE788E3ED
:1000400091E0215080409040E1F700C00000C1984D
:100050000895EEDF81E096B3C92FC47092FD02C00F
:100060008111EBDF2AEA36EE86E991E0215030403B
:1000700080409040D9F700008C2FEDCFF894FFCF4F
:00000001FF
